:100000000428FF3FFF3FFF3F4F3003138312A1003F
:100010004B30A200A3018316860183128601FF30B4
:100020008316880080309F0081309900181544277E
:100030004130C1005430C2002B30C3004330C400F3
:100040004D30C5004730C6004630C7003D30C800BF
:100050003130C900CA014130D6008A1559218A11B0
:100060000D30DD008A1582218A111A30FC00FF3024
:10007000FB00FF30FA00FC0B3E284528FB0B412813
:100080004428FA0B41283E283B287F30FB00FF30F4
:10009000FA00FB0B4C284F28FA0B4C284928583003
:1000A000FA00FA0B5128000000004130C100543022
:1000B000C2002B30C3004330C4004E30C5004D3069
:1000C000C6004930C7003D30C8003130C9002C306F
:1000D000CA003230CB002C30CC003030CD002C3078
:1000E000CE003030CF002C30D0003030D100D201E3
:1000F0004130D6008A1559218A110D30DD008A154C
:1001000082218A111A30FC00FF30FB00FF30FA0018
:10011000FC0B8B289228FB0B8E289128FA0B8E283B
:100120008B2888287F30FB00FF30FA00FB0B9928D2
:100130009C28FA0B992896285830FA00FA0B9E282A
:10014000000000004130C1005430C2002B30C30019
:100150004330C4004D30C5004730C6005330C7009F
:100160003D30C8002B30C9003230CA003130CB00DE
:100170003630CC003230CD003330CE003830CF00B6
:100180003430D0003430D1003430D2003830D30095
:100190003830D400D5014130D6008A1559218A1152
:1001A0000D30DD008A1582218A110D30FC00FF30F0
:1001B000FB00FF30FA00FC0BDE28E528FB0BE128F2
:1001C000E428FA0BE128DE28DB28BF30FB00FF30F3
:1001D000FA00FB0BEC28EF28FA0BEC28E9282B306F
:1001E000FA00FA0BF1280000000000002030C100E6
:1001F0007330C2006530C3006630C4006F30C50084
:100200002030C6006430C7006930C8006130C900C2
:100210006230CA006C30CB006F30CC002030CD0093
:100220002030CE00CF014130D6008A1559218A11E5
:100230000D30DD008A1582218A110D30FC00FF305F
:10024000FB00FF30FA00FC0B26292D29FB0B292986
:100250002C29FA0B292926292329BF30FB00FF303E
:10026000FA00FB0B34293729FA0B342931292B30BA
:10027000FA00FA0B39290000000000002030C1000C
:100280007630C2007330C3002030C4002030C50077
:10029000C6014130D6008A1559218A110D30DD0082
:1002A0008A1582218A110D30FC00FF30FB00FF30DF
:1002B000FA00FC0B5C296329FB0B5F296229FA0B0E
:1002C0005F295C295929BF30FB00FF30FA00FB0B86
:1002D0006A296D29FA0B6A2967292B30FA00FA0B73
:1002E0006F290000000000002030C1004530C2002E
:1002F0006C30C3002030C4004230C5007230C600EC
:100300006F30C7007430C8006F30C9006E30CA004B
:100310002030CB002030CC00CD014130D6008A15F2
:1003200059218A110D30DD008A1582218A111A3077
:10033000DD008A1582218A114130C1005430C2008B
:100340002B30C3004330C4004D30C5004730C600D9
:100350005230C7003D30C8003F30C900CA014130AB
:10036000D6008A1559218A110D30DD008A158221A7
:100370008A11A501A6018030033AF00080302606DC
:100380007002031DC5292508E83C031C1A2D8A1597
:10039000A2218A117008013A031DD5292730D60001
:1003A0002130D7008A1500208A112730D60053301B
:1003B000C1003030C2003D30C3003130C400C5013F
:1003C0004130D7008A1543208A1100307106031D81
:1003D000EB2900307006031DEE2906142730D600E5
:1003E0005330C1003130C2003D30C3003130C40051
:1003F000C5014130D7008A1543208A1100307106AB
:10040000031D042A00307006031D072A86142730B6
:10041000D6005330C1003230C2003D30C30031300D
:10042000C400C5014130D7008A1543208A1100302D
:100430007106031D1D2A00307006031D202A0615B3
:100440002730D6005330C1003330C2003D30C300E6
:100450003130C400C5014130D7008A1543208A11CC
:1004600000307106031D362A00307006031D392A3C
:1004700086152730D6005330C1003030C2003D30E1
:10048000C3003030C400C5014130D7008A15432075
:100490008A1100307106031D4F2A00307006031DBB
:1004A000522A06102730D6005330C1003130C20026
:1004B0003D30C3003030C400C5014130D7008A153B
:1004C00043208A1100307106031D682A003070062F
:1004D000031D6B2A86102730D6005330C1003230FE
:1004E000C2003D30C3003030C400C5014130D700E8
:1004F0008A1543208A1100307106031D812A0030BD
:100500007006031D842A06112730D6005330C1001F
:100510003330C2003D30C3003030C400C50141302B
:10052000D7008A1543208A1100307106031D9A2ACC
:1005300000307006031D9D2A86112730D6004530F5
:10054000C1004E30C2005430C3005230C4004530A8
:10055000C5004530C600C7014130D7008A15432089
:100560008A1100307106031DB72A00307006031D82
:100570001E2B2030C1004530C2003030C300203077
:10058000C4004530C5003130C6002030C7004530BA
:10059000C8003230C9002030CA004530CB003330AB
:1005A000CC002030CD00CE014130D6008A15592133
:1005B0008A110D30DD008A1582218A11BB01BC0130
:1005C0008030F00080303C067002031DE92A3B08B1
:1005D000033C031C192B2030C1002030C200C30192
:1005E0004130D6008A1559218A110130F0003B08AC
:1005F0000319FE2AF00D7010FF3FF82A0808F005D5
:100600003B080319072BF00CF013FF3F012B303090
:100610007007DD008A1582218A1100303C06031D17
:10062000132B03303B060319192BBB0A0319BC0A11
:10063000E02A0D30DD008A1582218A112730D6008C
:100640004130C1004E30C2004130C3004C30C400C4
:100650003030C500C6014130D7008A1543208A11C9
:1006600000307106031D362B00307006031D952BDC
:10067000D6018A1589208A117008BD007108BE0054
:10068000BF01C0013D08F0003E08F1003F08F20044
:100690004008F3008830F4001330F500F601F7014C
:1006A0008A15CA208A110030F4000430F500F601E2
:1006B000F7014A267008BD007108BE007208BF002D
:1006C0007308C0007008D6007108D7002730D80022
:1006D000E6264130C1004E30C2004130C3004C30EC
:1006E000C4002030C5003030C6002030C7003D3087
:1006F000C8002030C900CA014130D6008A155921EE
:100700008A112730D6008A1559218A116D30C1000F
:100710005630C200C3014130D6008A1559218A11D2
:100720000D30DD008A1582218A112730D600413034
:10073000C1004E30C2004130C3004C30C4003130E3
:10074000C500C6014130D7008A1543208A11003008
:100750007106031DAD2B00307006031D0D2C0130FA
:10076000D6008A1589208A117008BD007108BE0064
:10077000BF01C0013D08F0003E08F1003F08F20053
:100780004008F3008830F4001330F500F601F7015B
:100790008A15CA208A110030F4000430F500F601F1
:1007A000F7014A267008BD007108BE007208BF003C
:1007B0007308C0007008D6007108D7002730D80031
:1007C000E6264130C1004E30C2004130C3004C30FB
:1007D000C4002030C5003130C6002030C7003D3095
:1007E000C8002030C900CA014130D6008A155921FD
:1007F0008A112730D6008A1559218A116D30C1001F
:100800005630C200C3014130D6008A1559218A11E1
:100810000D30DD008A1582218A112730D600413043
:10082000C1004E30C2004130C3004C30C4003230F1
:10083000C500C6014130D7008A1543208A11003017
:100840007106031D252C00307006031D852C023017
:10085000D6008A1589208A117008BD007108BE0073
:10086000BF01C0013D08F0003E08F1003F08F20062
:100870004008F3008830F4001330F500F601F7016A
:100880008A15CA208A110030F4000430F500F60100
:10089000F7014A267008BD007108BE007208BF004B
:1008A0007308C0007008D6007108D7002730D80040
:1008B000E6264130C1004E30C2004130C3004C300A
:1008C000C4002030C5003230C6002030C7003D30A3
:1008D000C8002030C900CA014130D6008A1559210C
:1008E0008A112730D6008A1559218A116D30C1002E
:1008F0005630C200C3014130D6008A1559218A11F1
:100900000D30DD008A1582218A112730D600413052
:10091000C1004E30C2004130C3004C30C4003330FF
:10092000C500C6014130D7008A1543208A11003026
:100930007106031D9D2C00307006031DFD2C033035
:10094000D6008A1589208A117008BD007108BE0082
:10095000BF01C0013D08F0003E08F1003F08F20071
:100960004008F3008830F4001330F500F601F70179
:100970008A15CA208A110030F4000430F500F6010F
:10098000F7014A267008BD007108BE007208BF005A
:100990007308C0007008D6007108D7002730D8004F
:1009A000E6264130C1004E30C2004130C3004C3019
:1009B000C4002030C5003330C6002030C7003D30B1
:1009C000C8002030C900CA014130D6008A1559211B
:1009D0008A112730D6008A1559218A116D30C1003D
:1009E0005630C200C3014130D6008A1559218A1100
:1009F0000D30DD008A1582218A110730FB00FF309F
:100A0000FA00FB0B042D072DFA0B042D012D783075
:100A1000FA00FA0B092D00000000A7012608033A8E
:100A2000031D142DE830250603191A2DA50A0319F4
:100A3000A60ABB299C291B2D031383127408F802F4
:100A40007508031C750FF9027608031C760FFA026D
:100A50007708031C770FFB02F30D0730FC00730DC2
:100A6000F80DF90DFA0DFB0D7408731C452DF802F5
:100A70007508031C750FF9027608031C760FFA023D
:100A80007708031C770FFB02522DF807750803182F
:100A9000750FF90776080318760FFA077708031819
:100AA000770FFB07F30DFC0B2F2D720DF80DF90DD1
:100AB000FA0DFB0D7408731C6B2DF8027508031CEE
:100AC000750FF9027608031C760FFA027708031CEB
:100AD000770FFB02782DF80775080318750FF907D3
:100AE00076080318760FFA0777080318770FFB07C5
:100AF000F20D0730FC00720DF80DF90DFA0DFB0D2B
:100B00007408721C912DF8027508031C750FF90208
:100B10007608031C760FFA027708031C770FFB0296
:100B20009E2DF80775080318750FF9077608031846
:100B3000760FFA0777080318770FFB07F20DFC0B07
:100B40007B2D710DF80DF90DFA0DFB0D7408721C5B
:100B5000B72DF8027508031C750FF9027608031CFF
:100B6000760FFA027708031C770FFB02C42DF807F3
:100B700075080318750FF90776080318760FFA073A
:100B800077080318770FFB07F10D0730FC00710D94
:100B9000F80DF90DFA0DFB0D7408711CDD2DF8022E
:100BA0007508031C750FF9027608031C760FFA020C
:100BB0007708031C770FFB02EA2DF8077508031866
:100BC000750FF90776080318760FFA0777080318E8
:100BD000770FFB07F10DFC0BC72D700DF80DF90D0C
:100BE000FA0DFB0D7408711C032EF8027508031C26
:100BF000750FF9027608031C760FFA027708031CBA
:100C0000770FFB02102EF80775080318750FF90708
:100C100076080318760FFA0777080318770FFB0793
:100C2000F00D0730FC00700DF80DF90DFA0DFB0DFD
:100C30007408701C292EF8027508031C750FF90240
:100C40007608031C760FFA027708031C770FFB0265
:100C5000362EF80775080318750FF907760803187C
:100C6000760FFA0777080318770FFB07F00DFC0BD8
:100C7000132E7018492E7408F80775080318750F9D
:100C8000F90776080318760FFA0777080318770F25
:100C9000FB07080003138312FC01F71BFC0AFD018C
:100CA000FB01FA01F901F801730872047104700480
:100CB0000319DE2E73087706A000A01BFD09F71F9D
:100CC0006C2EF409F509F609F709F40A0319F50A77
:100CD0000319F60A0319F70AF31F792EF009F1092F
:100CE000F209F309F00A0319F10A0319F20A0319C8
:100CF000F30A73087704A000A01B9A2E1C25FC1B86
:100D0000B72EFD1FDE2EF009F109F209F309F00AF2
:100D10000319F10A0319F20A0319F30AF809F90988
:100D2000FA09FB09F80A0319F90A0319FA0A03195F
:100D3000FB0ADE2EF71FB12EF31BAB2E7308FB0050
:100D40007208FA007108F9007008F800F301F20166
:100D5000F101F001812EF301F201F101F001F00A3D
:100D60000034F309F209F109F009FC177E2EF80AA4
:100D70000319F90A0319FA0A0319FB0A740878021D
:100D8000031D812E75087902031D812E76087A02D3
:100D9000031D812E77087B02031D812EFB01FA01C2
:100DA000F901F801F00A0319F10A0319F20A03190B
:100DB000F30AF31F812EA0012016FF34A0017C1C32
:100DC000E42E8A1594218A11003F08000130031394
:100DD0008312D9005708003C031DF02E5608093C29
:100DE0000318F32ED90A5708003C031DF92E5608A4
:100DF000633C0318FC2ED90A5708033C031D022F3D
:100E00005608E73C0318052FD90A5708273C031D4D
:100E10000B2F56080F3C03180E2FD90A58088400D0
:100E200020308000840A8000840A8000840A8000C8
:100E3000840A8000840A800184035908003C031856
:100E4000432F0A30F400F5015608F0005708F1006E
:100E50008A153C218A117808F0007908F1003030B9
:100E60007007800084030A30F400F5015608F00092
:100E70005708F1008A153C218A117008D6007108C4
:100E8000D700D9031D2F080003138316981690303E
:100E90008312980083168717071383120C08F1003A
:100EA0000030F11A0130F1007108013A03194D2F99
:100EB0000800FF3FFF3FFF3FFF3FFF3FFF3FFF3F78
:100EC000FF3FFF3FFF3FFF3FFF3FFF3FFF3FFF3F32
:100ED000FF3FFF3FFF3FFF3FFF3FFF3FFF3FFF3F22
:100EE000FF3FFF3FFF3FFF3FFF3FFF3FFF3FFF3F12
:100EF000FF3FFF3FFF3FFF3FFF3FFF3FFF3FFF3F02
:100F0000FF3FFF3FFF3FFF3FFF3FFF3FFF3FFF3FF1
:100F1000FF3FFF3FFF3FFF3FFF3FFF3FFF3FFF3FE1
:100F2000FF3FFF3FFF3FFF3FFF3FFF3FFF3FFF3FD1
:100F3000FF3FFF3FFF3FFF3FFF3FFF3FFF3FFF3FC1
:100F4000FF3FFF3FFF3FFF3FFF3FFF3FFF3FFF3FB1
:100F5000FF3FFF3FFF3FFF3FFF3FFF3FFF3FFF3FA1
:100F6000FF3FFF3FFF3FFF3FFF3FFF3FFF3FFF3F91
:100F7000FF3FFF3FFF3FFF3FFF3FFF3FFF3FFF3F81
:100F8000FF3FFF3FFF3FFF3FFF3FFF3FFF3FFF3F71
:100F9000FF3FFF3FFF3FFF3FFF3FFF3FFF3FFF3F61
:100FA000FF3FFF3FFF3FFF3FFF3FFF3FFF3FFF3F51
:100FB000FF3FFF3FFF3FFF3FFF3FFF3FFF3FFF3F41
:100FC000FF3FFF3FFF3FFF3FFF3FFF3FFF3FFF3F31
:100FD000FF3FFF3FFF3FFF3FFF3FFF3FFF3FFF3F21
:100FE000FF3FFF3FFF3FFF3FFF3FFF3FFF3FFF3F11
:100FF000FF3FFF3FFF3FFF3FFF3FFF3FFF3FFF3F01
:1010000003138312D801D901DC01570884000008BA
:10101000DB00A2217008003A031939286F217008FB
:10102000DA0058085607F10071088400710884003E
:10103000700880005A085B06031D232859085802CF
:10104000DC00D90A2528D901DC015908570784009A
:101050000008F1007108DB007108003A031D312817
:101060003A28D80A5808143C031839281330DC00F1
:101070003A2809285C085607F000700884007008B8
:1010800084008001080003138312DA0156088400EB
:101090000008D800D901570884000008F00000308B
:1010A000D9007008D802031CD90300305906031D6B
:1010B0005B2800305806FF30031D0030F3005A084B
:1010C000560784000008F2007208003AFF30031946
:1010D0000030F0007308F005031984285A0AF00064
:1010E0007008DA007008560784000008D800D9019B
:1010F0007008570784000008F0000030D90070081D
:10110000D802031CD90355285808F0005908F100EB
:101110000800031383129F01C0309F0440308316E0
:101120001F04F00070089F00803070049F0083123D
:101130005608F000F00D7010F00D7010F00D7010EA
:1011400070089F041F14AF211F151F08F200003004
:1011500072190130F2007208013A031DB128000033
:10116000A5281E08F200F3017208F300F2017208CC
:10117000D7007308D80083161E0872048312D700A4
:101180007308D8000030D8041F105708F000580822
:10119000F100080003138312FD01F31FDC28F0099E
:1011A000F109F209F309F00A0319F10A0319F20A25
:1011B0000319F30A8130FD07F71FEA28F409F5093E
:1011C000F609F709F40A0319F50A0319F60A0319CF
:1011D000F70AFD0A05217D1C0429F009F109F2092D
:1011E000F309F809F909FA09FB09F00A0319F10AE8
:1011F0000319F20A0319F30A0319F80A0319F90A81
:101200000319FA0A0319FB0A080003138312223098
:10121000FC00F801F901FA01FB01FC0303193B2969
:101220000310FB0CFA0CF90CF80CF30CF20CF10C9B
:10123000F00C031C0D29FC0303192D297408F80771
:1012400075080318750FF90776080318760FFA0763
:1012500077080318770FFB0711297408F80775083A
:101260000318750FF90776080318760FFA07770841
:101270000318770FFB07080003138312F801F90125
:101280001030FC00710DF80DF90D7408F8027508A6
:10129000031C750FF902031854297408F807750820
:1012A0000318750FF9070310F00DF10DFC0B42291F
:1012B000080003138312D701560884000008D800E1
:1012C0005808003A03196E295808DD008221D70A10
:1012D0005708560784000008D80060290800031347
:1012E00083121A08DD001808F1000030F1180130EF
:1012F000F1007108013A031D7F29181218165D08C4
:10130000F0000800031383161808F1000030F118EC
:101310000130F1007108003A031D90290000822974
:1013200083125D089900080003138312FB09FA0970
:10133000F909F809F80A0319F90A0319FA0A03194D
:10134000FB0A0800031383120C08F1000030F11AA5
:101350000130F1007108DD005D08F0000800243064
:1013600003138312FA00FA0BB32900000800FF3FB1
:02400E007A3FF7
:00000001FF
